:107E0000112484B714BE83FFE3D080E0DBD085E08B
:107E10008093810082E08093C00088E18093C1005C
:107E200086E08093C20083E38093C400259A86E0B5
:107E300020E33CEF91E0309385002093840096BBD3
:107E4000B09BFECF1D9AA8958150A9F7CC24DD24C4
:107E500099249394B5E08B2EA1E1AA2EF3E0BF2ED6
:107E6000A5D0813471F4A2D0082FB7D0023811F414
:107E700085E005C0013811F484E001C083E08ED0B4
:107E80008AC0823411F484E103C0853419F485E09A
:107E9000AAD081C0853579F489D0E82EFF2486D018
:107EA000082F10E0102F00270E291F29000F111F87
:107EB00094D0680170C0863521F484E094D080E0CD
:107EC000DECF843609F040C071D070D0082F6ED05C
:107ED00080E0C81680E7D80618F4F601B7BEE8952A
:107EE000C0E0D1E063D089930C17E1F7F0E0CF1642
:107EF000F0E7DF0618F0F601B7BEE8956ED007B6DA
:107F000000FCFDCFA601A0E0B1E02C9130E011967D
:107F10008C91119790E0982F8827822B932B1296A3
:107F2000FA010C0197BEE89511244E5F5F4FF1E016
:107F3000A038BF0751F7F60187BEE89507B600FCE9
:107F4000FDCFA7BEE89527C08437B1F42FD02ED03F
:107F5000F82E2CD042D0F601EF2C8F010F5F1F4F6F
:107F600084911CD0EA94F801C1F70894C11CD11C7B
:107F7000FA94CF0CD11C0FC0853739F42ED08EE186
:107F80000DD085E90BD08FE07ACF813519F425D05B
:107F90001FD001C022D080E101D062CF982F809104
:107FA000C00085FFFCCF9093C60008958091C0006B
:107FB00087FFFCCF8091C00084FD01C0A89580910F
:107FC000C6000895E0E6F0E098E19083808308958C
:107FD00080E0F8DFEE27FF270994E8DF803209F020
:107FE000F7CF84E1DBCF1F93182FE0DF1150E9F7C3
:067FF000F4DF1F9108956B
:027FFE00050478
:0400000300007E007B
:00000001FF
